:100000000224CD0230B243FC01904053E04401F0A1
:07001000D28022020016322B
:03001B000229C1F6
:10002300022FFD12308B123067122567E4900220F5
:10003300F090020DF0A3F022022BDFEE30E707C3AE
:07004300E49FFFE49EFE2292
:03004B00022B8CF9
:03005300020D3F5C
:03005B00022C2C48
:10006300022F9C020427E86480F8E933E833601127
:100073000460F0ED33EC337009E8FCE9FDEAFEEBD4
:10008300FF220460DED3EB9FEA9EE99DE8C2E78C82
:10009300F0C2F795F0400CE8CCF8E9CDF9EACEFAD6
:1000A300EBCFFB1203F285D0F05804700320D5B3D5
:1000B300E80470075002B2D502043192D5EC046013
:1000C300F7E4CCC0E0C398F8603B94186008400D97
:1000D300D0E0FB020409E4FBFAC9FC8028E830E421
:1000E30006E4C9FBE4CAFCE830E305E4C9CACBFC77
:1000F300E854076010F8C3E913F9EA13FAEB13FBAA
:10010300EC13FCD8F130F52FC3E49CFCEF9BFFEE1E
:100113009AFEED99FDD0E0FBEF4E4D4C701222DBC1
:100123000302042EEC2CFCEF33FFEE33FEED33FD24
:10013300ED30E7EB020409EF2BFFEE3AFEED39FD5C
:10014300D0E0FB50130BBB0003020431ED13FDEEB3
:1001530013FEEF13FFEC13FC020409EC4D6011E8EE
:10016300497017ED33EC3304600DE4FCFFFEFD2210
:10017300E933E8330470F80204271203F2580460E9
:1001830009E4CC2481500628500902043128400395
:1001930002042EC0E0EB4A7044B98006D0E0FB02B3
:1001A300041DEF4E701CBD8008EBFFEAFEE9FD80E5
:1001B300EBE98DF0A4FEE5F0020247E9CDF9EAFE92
:1001C300EBFFEF89F0A4FCE5F0CE89F0A42EFFE469
:1001D30035F0CD89F0A42DFEE435F08067EF4E7045
:1001E30005BD80D780C3EF8BF0A4ACF0EE8BF0A4F9
:1001F3002CFCE435F0F8EF8AF0A42CE5F038FCE4AD
:1002030033CB8DF0A42CFCE5F03BF8EE8AF0A42C64
:10021300FCE5F038F8E433CF89F0A42CFCE5F038A2
:10022300CF3400CE89F0A42FFFE5F03EFEE433C9BE
:100233008DF0A42EFEE5F039CD8AF0A42FFFE5F072
:100243003EFEE43DFD33D0E0FB50070BBB000F0245
:100253000431EC2CFCEF33FFEE33FEED33FD0204EF
:1002630009020431EC5D046005E8590470030204DB
:10027300271203F2580460F6EC4860F2EC7004FDB8
:10028300FEFF22C860DB2481C85009C39860025076
:100293000602042E9850CAF582E9294B4A7005AB31
:1002A3008202041D75F0007C1A7880C3EF9BEE9ADE
:1002B300ED99400DC3EF9BFFEE9AFEED99FDE842E9
:1002C300F0DC23ACF0D0E0FFD0E0FED0E0FDAB8269
:1002D30020E7101BEB60BAEC2CFCEF33FFEE33FE90
:1002E300ED33FD020409E803F830E705C0F075F0CB
:1002F30000EF2FFFEE33FEED33FD40B830E7C28051
:10030300AA74F8CC6480CCC86480C8F58204604FBA
:10031300C3EB9FF5F0EA9E42F0E99D42F0E89C456D
:10032300F0603C501DE5825FFFE582D313CB5BCBCE
:10033300F42B5582FB50280ABA002409B90020087F
:10034300801DE5825BFBE582D313CF5FCFF4C3133C
:100353002F5582FF50090EBE00050DBD00010CC3D1
:10036300EB9FF5F0EA9E42F0E99D42F0E89C45F0F0
:100373006007CC4820E701B3EC2275F020800E75AE
:10038300F010800575F0087D007E007F003392D564
:1003930030D5031205C8EC334010EF33FFEE33FEC4
:1003A300ED33FDEC33FCD5F0ED22E5F0247EA2D550
:1003B30013CC92E7CDCEFF22EDD2E7CD33EC3392CF
:1003C300D524814006E4FFFEFDFC22FCE4CFCECD24
:1003D300CC24E0501174FF80EDC3CC13CCCD13CDEE
:1003E300CE13CECF13CF0470F030D5DE0205C8E9AB
:1003F300D2E7C933E833F892D5EDD2E7CD33EC3306
:10040300FC5002B2D522EC30E7100FBF000C0EBE39
:1004130000080DBD00040BEB6014A2D5EB13FCED3B
:1004230092E7FD2274FFFCFDFEFF22E480F8A2D5D3
:1004330074FF13FC7D80E480EFBB010689828A830D
:10044300E0225002E722BBFE02E32289828A83E490
:100453009322BB010CE58229F582E5833AF583E01B
:10046300225006E92582F8E622BBFE06E92582F83A
:10047300E222E58229F582E5833AF583E49322BB00
:10048300010989828A83F8E028F022500327F722A2
:10049300BBFE05F8E328F3228A838982F8E49328D4
:1004A30022BB010689828A83F0225002F722BBFE17
:1004B30001F322C5F0F8A3E028F0C5F0F8E58215B2
:1004C3008270021583E038F022BB010A89828A8395
:1004D300E0F5F0A3E022500687F009E71922BBFEFE
:1004E30007E3F5F009E3192289828A83E493F5F09F
:1004F30074019322BB0110E58229F582E5833AF565
:1005030083E0F5F0A3E0225009E92582F886F0089C
:10051300E622BBFE0AE92582F8E2F5F008E222E5CD
:10052300832AF583E993F5F0A3E99322BB010DC573
:100533008229C582C5833AC5830204B65011C58298
:1005430029F808E5F026F618F5F0E58236F622BB21
:10055300FE11C58229F808E225F0F5F0F218E2351C
:1005630082F222F8E58229F582E5832AF583740174
:100573009325F0F5F0E4933822BB010A89828A833C
:10058300F0E5F0A3F0225006F709A7F01922BBFE0D
:1005930006F3E5F009F31922F8BB0111E58229F509
:1005A30082E5833AF583E8F0E5F0A3F0225009E908
:1005B3002582C8F608A6F022BBFE09E92582C8F207
:1005C300E5F008F222C3E49FFFE49EFEE49DFDE410
:1005D3009CFC22EB9FF5F0EA9E42F0E99D42F0E895
:1005E3009C45F022E8600FECC313FCED13FDEE1302
:1005F300FEEF13FFD8F122E86010ECA2E713FCED45
:1006030013FDEE13FEEF13FFD8F022ECF0A3EDF091
:10061300A3EEF0A3EFF022A8828583F0D083D082EB
:10062300120631120631120631120631E473E493D5
:10063300A3C583C5F0C583C8C582C8F0A3C583C558
:10064300F0C583C8C582C822EC8EF0A4CCC5F0CC1B
:10065300CDF8EFA4CEC5F02DFDE43CFCE8A42EC8F4
:10066300C5F03DFDE43CFCEFA4FFE5F028FEE43DCE
:10067300FDE43CFC22EF4E6012EF60010EEDBB0186
:100683000B89828A83F0A3DFFCDEFA2289F050070C
:10069300F709DFFCA9F022BBFEFCF309DFFCA9F09C
:1006A30022900217EBF0A3EAF0A3E9F0900078E0C0
:1006B300FEA3E0FFC390001BE09FEE6480F8900070
:1006C3001AE064809840030209099040D4E0FCA337
:1006D300E0FDC3EF9DFFEE9CFED3EF9432EE64800A
:1006E30094B34015900217E0FBA3E0FAA3E0F9905E
:1006F3000004E475F05A02086A9040D4E0FEA3E0D7
:10070300FF900078E0FCA3E0FDC39FFFEC9EFED3C7
:10071300EF94CCEE648094AC4015900217E0FBA3F9
:10072300E0FAA3E0F9900004E475F05002086A903F
:1007330040D4E0FEA3E0FFC3ED9FFFEC9EFED3EFAA
:100743009466EE648094A64015900217E0FBA3E044
:10075300FAA3E0F9900004E475F04602086A9040B9
:10076300D4E0FEA3E0FF900078E0FCA3E0FDC39F8C
:10077300FFEC9EFED3EF94FFEE6480949F401590B0
:100783000217E0FBA3E0FAA3E0F9900004E475F09C
:100793003C02086A9040D4E0FEA3E0FFC3ED9FFF54
:1007A300EC9EFED3EF9499EE6480949940159002E9
:1007B30017E0FBA3E0FAA3E0F9900004E475F0323C
:1007C30002086A9040D4E0FEA3E0FF900078E0FCCA
:1007D300A3E0FDC39FFFEC9EFED3EF9433EE648052
:1007E30094934014900217E0FBA3E0FAA3E0F9907E
:1007F3000004E475F028806F9040D4E0FEA3E0FF8E
:10080300C3ED9FFFEC9EFED3EF94CCEE6480948CFB
:100813004014900217E0FBA3E0FAA3E0F990000470
:10082300E475F01E80419040D4E0FEA3E0FFC39046
:100833000079E09FFF900078E09EFED3EF9466EE90
:1008430064809486900217E0FB400FA3E0FAA3E0D4
:10085300F9900004E475F014800DA3E0FAA3E0F925
:10086300900004E475F00A12059B900217E0FBA3C5
:10087300E0FAA3E0F91225FF900217E0FBA3E0FAE8
:10088300A3E0F9900004EE8FF012059B9000041290
:1008930004F7FFAEF09000021204F72FFFE5F03EDD
:1008A300FE1204CCFDACF0C3EF9DEC6480F8EE6463
:1008B3008098501C900217E0FBA3E0FAA3E0F990A4
:1008C30000041204F7FF900002E5F08FF002052FF9
:1008D300900217E0FBA3E0FAA3E0F99000021204F0
:1008E300F7FFC3ED9FFFEC95F0FEC3EF9428EE6492
:1008F3008094804003020A151204CCFF900002E5A5
:10090300F08FF0020A12900217E0FBA3E0FAA3E0D3
:10091300F99000021204F7FF900078E0FCA3E0FDD9
:10092300C3EF9DFFE5F09CFED3EF9432EE64809419
:10093300B34009900006E475F0328024D3EF94337A
:10094300EE648094934009900006E475F0238010D0
:10095300D3EF9499EE64809489900006E475F014C3
:1009630012059B9000061204F7FFAEF090000212EE
:1009730004F7C39FFFE5F09EFE1204CCFDD3EF9D69
:10098300E5F06480F8EE648098405D900217E0FB28
:10099300A3E0FAA3E0F99000061204F7FFAEF0908B
:1009A30000021204F7D39FEE6480F8E5F0648098A8
:1009B3004036900217A3A3E02402F9E43AFAC002F6
:1009C300C0011204CCFFAEF0900217A3E0FAA3E03B
:1009D300F99000061204F7FDC3EF9DFFEE95F0D0EA
:1009E30001D0028FF002057C900217E0FBA3E0FA2E
:1009F300A3E0F99000021204F7FFAEF01204CCFD5D
:100A0300ACF06F7002EE6C6009900002EC8DF01296
:100A1300059B22900220E0FF64076008EF640860F2
:100A230003020D16900004E0FEA3E0FFEE60030254
:100A33000D16EF147003020B85046003020D16906C
:100A430000ADE06401706E9000B475F0011204B65D
:100A5300FEC3E5F09401EE6480948040589000B4A6
:100A6300E4F0A304F0904092E0FFA3E090008DCF68
:100A7300F0A3EFF0E02419FF90008DE03400FEC3F3
:100A8300EF948DEE64809497502BA3E02419F0909B
:100A9300008DE03400F0E0FEA3E0FF90000CEEF0E8
:100AA300A3EFF0904092EEF0A3EFF09000367404C1
:100AB300F0A374B0F0D390001BE094E190001AE02F
:100AC300648094825003020D16E49000B4F0A3F006
:100AD3009000ADF0900077F0900036E07002A3E054
:100AE3007007900004F0A304F09000F2E07005900A
:100AF300001A8008E49000F2F09000D3E0FFA3E036
:100B030090007ACFF0A3EFF09000F5E0600590003D
:100B13000C802E9000F8E0B402149000F4E064011D
:100B2300600C90000C740AF0A3743DF0801A9000DE
:100B3300F4E090000CB401097402F0A3748FF08008
:100B4300077403F0A37412F090000CE0FEA3E0FF1F
:100B53009002ECEEF0A3EFF09002DCEEF0A3EFF0E6
:100B63009002C8EEF0A3EFF09002B4EEF0A3EFF022
:100B7300904092EEF0A3EFF0E4900030F0A3F00287
:100B83000D16900031E004F07006900030E004F0A0
:100B9300D3900031E0940C900030E09400500302B5
:100BA3000D16E4F0A3F0900002E0FEA3E0FF940A28
:100BB300EE94004034900097E4F0A304F090407466
:100BC300740BF0A3742BF0A3E4F0A37430F0900241
:100BD300A8740CF0A374CCF0A37401F0A374EBF02D
:100BE30090407EE4F0A374A4F0C3EF940FEE94005E
:100BF300406A904094E0FEA3E0D394CCEE648094EA
:100C03008C904094400A74FE75F0671204B6800716
:100C1300740CF0A374CCF0904096E0FEA3E0D39460
:100C230047EE64809481904096400A74FE75F0B953
:100C33001204B680077401F0A37447F0904096E065
:100C4300FFA3E0900060CFF0A3EFF0904094E0FFAB
:100C5300A3E0900065CFF0A3EFF0801BC3900003E7
:100C6300E09419900002E09400500CA3E004F070AB
:100C730006900002E004F09040B4E0FEA3E0C394C9
:100C8300CCEE648094FC9040B45014E475F0A3124D
:100C930004B69040B674FF75F05D1204B6800F740D
:100CA3007DF0A3746FF0A37482F0A37491F0E490C9
:100CB30000F4F0A3F09001CEE0FF70119002ACE0DD
:100CC300FCA3E0D39476EC9414501F8013EFB4028A
:100CD300199002ACE0FEA3E0D3949FEE9401500A76
:100CE3009002ACE475F0041204B67B017A007978C3
:100CF3001206A490001AE0FEA3E0FFC390007BE07D
:100D03009FFF90007AE09EFE123035904092EEF005
:100D1300A3EFF0900220E0B40721C390002DE094EC
:100D23009890002CE0943A500DA3E004F0700C90DE
:100D3300002CE004F022E49000F3F022C0E0C0F0C5
:100D4300C083C082C0D075D000C000C001C002C043
:100D530003C004C005C006C007904061E020E7035C
:100D6300021046900220E06405705690021DE030A8
:100D7300E14F900192E060319040DAE0FFA3E09010
:100D8300018CCFF0A3EFF09040DCE0FFA3E09001F3
:100D93008ECFF0A3EFF09040DEE0FFA3E090019050
:100DA300CFF0A3EFF0A3E014F0900193E07002A35F
:100DB300E0600E900194E024FFF0900193E034FF93
:100DC300F0122ECFC390003BE0941090003AE094D1
:100DD30027501A900004E07004A3E06401700E90A1
:100DE300003BE004F0700690003AE004F01228198A
:100DF300122E709001CEE09002ACB402097401F09F
:100E0300A374A3F080077414F0A3747AF0904039AC
:100E1300E04440F090408CE0FFA3E09001C4CFF0A9
:100E2300A3EFF090408EE0FFA3E09001C6CFF0A3C4
:100E3300EFF0904088E0FFA3E09001C8CFF0A3EF6C
:100E4300F09040BAE0FFA3E090000ECFF0A3EFF0E4
:100E53009040B8E0FFA3E0900010CFF0A3EFF09034
:100E63000220E06407705F9040D8A3E025E0FF050F
:100E730082D5820215831582E033900006F0A3EF3A
:100E8300F075C12075CA0675CB0A900006E0FEA373
:100E9300E0FF8EC78FC6A3E0FEA3E0FF8EC58FC41D
:100EA300A3E0FEA3E0FF8EC38FC2E5C120E7FB9062
:100EB3000008E5C5F0A3E5C4F0A3E5C3F0A3E5C2CC
:100EC300F075C1408007900008E4F0A3F090022081
:100ED300E0FF64066005EF6407704675C12075CABC
:100EE3000675CB0A9040D4E0FEA3E08EC7F5C6900A
:100EF300001AE0FEA3E0FF8EC58FC4A3E0FEA3E0CB
:100F0300FF8EC38FC2E5C120E7FB90001AE5C5F051
:100F1300A3E5C4F0A3E5C3F0A3E5C2F075C1408027
:100F23000790001AE4F0A3F075C12075CA0590403C
:100F3300D0E0FEA3E08EC7F5C6A3E0FEA3E08EC318
:100F4300F5C2E5C120E7FB900020E5C7F0A3E5C6A5
:100F5300F075C140120A16900304E0FFA3E090006D
:100F630058CFF0A3EFF075C12075CA0675CB329048
:100F73000058E0FEA3E0FF8EC78FC6A3E0FEA3E008
:100F8300FF8EC58FC490005EE0FEA3E0FF8EC38F8B
:100F9300C2E5C120E7FB90005AE5C5F0A3E5C4F024
:100FA30090005EE5C3F0A3E5C2F075C1401216C21E
:100FB300D3900037E09400900036E09400400CA3F7
:100FC300E024FFF0900036E034FFF0122688D3903F
:100FD30000ECE094009000EBE09400400CA3E024CC
:100FE300FFF09000EBE034FFF09000F8E0B4010E66
:100FF3009000F7E004F070069000F6E004F0900033
:10100300F8E0B4020E9000FAE004F070069000F9E4
:10101300E004F09000FEE07004A3E06401701BC3E1
:101023009000FDE094889000FCE09413500CA3E042
:1010330004F070069000FCE004F0904061E044107E
:10104300547FF0D007D006D005D004D003D002D00F
:1010530001D000D0D0D082D083D0F0D0E032900045
:10106300EBE0FEA3E0FFC3EE940050030211D1EFC7
:10107300941EEE940040030211D19000FEE4F0A30D
:1010830004F0900092E0FF9000DAE06F707090003F
:10109300F804F09000D3E0FEA3E0FF944FEE940039
:1010A3004033EF9432EE9433502B1230B8BF011714
:1010B300900078E0FEA3E0FFD39000D4E09F90007F
:1010C300D3E09E500880009000F17401F09000F28C
:1010D3007401F08029C39000D4E094329000D3E0EF
:1010E3009433400B9000EBE4F0A37496F0800F90E0
:1010F30002207405F09001937407F0A304F09000AC
:1011030092E0FF9000DAE0FE6F70030211A8EE6434
:101113007F70030211A8EEF470030211A89000F887
:101123007402F090021DE054FBF0C2FF90405EE0B9
:10113300FEA3E02401FFE43E904058F0A3EFF090BB
:10114300405CE4F0A3F090405CC083C082E0FFA366
:10115300E04415D082D083CFF0A3EFF0904062E05B
:1011630054F7F0D2FF53D5C053DAFE9000F4740164
:10117300F0D39000D4E094FD9000D3E0941E40128D
:10118300900036740BF0A374B8F09000F37401F080
:1011930080139000367405F0A374DCF09000F3E044
:1011A30070037402F09000DAE0FF647F6004EFB430
:1011B300FF1C9000B3E0701653D5C053DAFE9002C3
:1011C300207405F09001937402F0A37458F0C39057
:1011D30000F7E0945E9000F6E09401401D9000F863
:1011E300E064026015E49000F2F09000F8F09000E3
:1011F300F6F0A3F09002207408F0D39000FDE09481
:10120300949000FCE094114018E4F0A3F09000F2F5
:10121300F09000F8F09000F6F0A3F090022074082C
:10122300F0229000FBE0900209B401097401F0A3DD
:101233007490F08006E4F0A374B4F0900220E064AC
:101243000760030213C590003CE07002A3E0600353
:101253000213C57840E6FE08E6FFC390020AE09F4A
:10126300900209E09E400706E618700106229000EE
:1012730004E07002A3E07030784906E618700106B6
:10128300D37849E6948218E694054022784A761783
:10129300087670E47848F608F690020DF0A37440DF
:1012A300F0E4900041F08006E47848F608F69040B8
:1012B300BAE0FEA3E0C394F4EE64809481503078E6
:1012C3004706E618700106D37847E6941418E694A7
:1012D300004022784A7617087670E47846F608F6D6
:1012E30090020DF0A37460F0E4900041F08006E4F6
:1012F3007846F608F690001AE0FEA3E0FFC3948C4C
:10130300EE64809481400BD3EF94FFEE648094DF0E
:101313004030784306E618700106C37843E6940527
:1013230018E69400402F784A7617087670E47842DE
:10133300F608F690020DF0A37420F0E4900041F05B
:101343008013D37843E6940018E69400400708E638
:101353001618700116900020E0FEA3E0FF7C007DCC
:101363000312064BA804A905AA06AB0790001AE0CE
:10137300FEA3E0FFEE3395E0FDFCC31205D6502F2C
:10138300784506E618700106C37845E6940518E625
:101393009400402E784A7617087670E47844F6086D
:1013A300F690020DF0A37480F0E4900041F022D394
:1013B3007845E6940018E69400400708E61618708E
:1013C300011622420089000041007700420002001A
:1013D30000420097000042005600004200670000F0
:1013E30042009B000042008B00004200620000426A
:1013F30000750000420095000042006D00004200AD
:10140300870000410074004200850000420069002B
:1014130000420065000042006000004200540000EA
:10142300440070000000004100640042006B0000B3
:1014330042008D000041006F0242000000004101A4
:10144300ED004201EE01F44101F0004101F10041E0
:1014530001F2004801CF000000000000000041013C
:10146300D7004101D9004101CE004101DA00420118
:10147300CB00004101CD004101D8004101CA004227
:1014830001C400004201C600004201C80000010877
:101493000042022100006040010E00000000000035
:1014A3000000000000000000000000000000000039
:1014B3000000000000000000000000000000000029
:1014C3000000000000000000000000000000000019
:1014D30000000000000000000000420195000042EF
:1014E30000B600004800CB000103020506040746CE
:1014F30000C50000000000004100B80041009D004D
:1015030042020B00004202090000410207054102AA
:1015130008055A014E00000CCC1999266633323F58
:10152300FF4CCC599866656CCB733279987FFF5A20
:101533000172076C0ED816441D9625022C6E33C01B
:101543003B2C4298464E4A044DBA50AA420223000D
:10155300004101AC000012307BEF60109000367444
:1015630001F0A374F4F09002207408F090020DE0EF
:101573007002A3E060069002207409F0900220E05C
:10158300B40A0040030216C1901592F8282873028A
:1015930015B00215DB0216C10215ED0216C10216C3
:1015A3000A02162202163202165A02169D9000846F
:1015B300E070028070122AE19001ABE064016003E5
:1015C3000216C1900084E0640160030216C1900119
:1015D300ABF090022004F022900084E0700280457A
:1015E300122F789002207403F022900084E070029E
:1015F3008033122E3F90003FE0640160030216C166
:101603009002207407F022900084E070028016E4B8
:101613009000F6F0A3F053D5C053DAFE021C2D90D0
:101623000084E070079002207408F0220222A49044
:101633000078E07002A3E06006900084E0707F9081
:1016430002207408F0904092E4F0A3F09000367406
:1016530003F0A374E8F02290021DE020E416E044B6
:1016630010F09040A0E4F0904062E054DFF0E054CA
:101673007FF0C2FF900084E064017042900036E086
:101683007002A3E070389000F4F0904062E0448070
:10169300F0904058E4F0A3F08020900041E07009FE
:1016A300122FBE9000417401F053D5C053DAFE00EF
:1016B30090020DE07002A3E07004900220F0227803
:1016C3003906E618700106C37839E6940318E694E0
:1016D300004004E4F608F67839E618467005122748
:1016E30097801A7839E6640118467005121225802E
:1016F3000C7839E664021846700312182A90022007
:10170300E06409600302182990020DE0FEA3E0FFE4
:10171300EE6003021829EF24FE602524FE70030205
:1017230017D724FC70030217D724F8606D24F060E8
:101733004024E0603C24C06038247F600302182901
:10174300783F06E618700106C3783FE694C418E6AE
:1017530094095003021829E49000F4F0900097F0E4
:10176300A3F0900002F0A3F090020DF0A3F0021892
:1017730026784BE61846600708E6161870011678B7
:101783004BE61846600302182990020DF0A3F0906F
:101793000097F0A3F09000028031C37837E69405F8
:1017A30018E694005029785506E618700106C378A8
:1017B30055E694B818E6940B406CE4784EF608F6B8
:1017C30008F608F608F608F690020DF0A3F022E4F6
:1017D3007854804F90005AE0FEA3E0FFC3949CEE40
:1017E30094585042EF9442EE942F403A783D06E6E7
:1017F30018700106D3783DE6949618E694004026C7
:10180300E47844F608F6900036F0A37464F0E490AC
:101813000097F0A3F0900002F0A3F090020DF0A364
:10182300F0783CF608F622900220E0640760030299
:101833001986784D06E618700106D3784DE69414A0
:1018430018E694005003021986E4F608F67828E6B1
:10185300FC08E6FD25E0FFEC33FE7826E6FA08E611
:10186300FBD39FEA9E5011782BE625E0FF18E63361
:10187300FED3EB9FEA9E4013D3EB9468EA940040B7
:101883000A784F06E6187016068013D3784FE6944D
:101893000018E69400400708E61618700116EB25B9
:1018A300E0FFEA33FED3ED9FEC9E5013782BE62541
:1018B300E0FF18E633FED318E69F18E69E4016D3E2
:1018C3007829E6946818E69400400A785106E618E9
:1018D3007016068013D37851E6940018E6940040FE
:1018E3000708E616187001167827E625E0FF18E6C4
:1018F30033FE782AE6FC08E6FDD39FEC9E50117870
:1019030029E625E0FF18E633FED3ED9FEC9E401356
:10191300D3ED9468EC9400400A785306E6187016E9
:10192300068013D37853E6940018E6940040070822
:10193300E61618700116E47826F608F608F608F697
:1019430008F608F69040A1E04440F0D3784FE694BF
:101953000918E6940050167851E6940918E69400A5
:10196300500B7853E6940918E6940040167837062E
:10197300E61870010690020DE4F0A37410F0E490F1
:101983000041F022904062E0547FF0E054DFF0E049
:101993004420F090409FE04402F0E054DFF0E05434
:1019A300EFF09040D874FFF09040D4E4F0A3F090AF
:1019B3004082F0A3F0A3F0A3F0A3F0A3F09040A023
:1019C300F0A3F0904090F0A3F0A3F0A3F09040CCEC
:1019D300F0A3F09040AAF0A3F09040A8F0A3F090F9
:1019E30040ACF09040AEF0A3F09040AD7404F090A2
:1019F30040B07466F0A314F0A37499F0A3749BF041
:101A0300A3747DF0A3746FF0A37482F0A37491F0B8
:101A130090408C7479F0A374F9F0A37403F0A37469
:101A23002BF09040887410F0A3746DF0A3E4F0A33E
:101A3300F09040807407F0A3740CF090407EE4F0C3
:101A4300A374A4F090407C742CF0A37449F09040EC
:101A5300A3E4F09040A1E0547FF0904078746CF0E0
:101A6300A374CBF0A37402F0A374C9F09040A0E078
:101A73004401F0900092E09040627006E054BFF0A1
:101A83008004E04440F09040A0E04480F090409F08
:101A9300E054F7F0A3E054F3F09040A2747AF0908E
:101AA30040A57405F09040A1E054DFF053D69F9019
:101AB30001ABE0B401169040A1E054F3F09001A310
:101AC300E0FFA3E09040A6CFF0A3EFF0904062E0E8
:101AD3004480F0E04408F022900004E07004A3E0A6
:101AE30064016003021BF6900211E07002A3E06040
:101AF30003021BF690020FE06003021BF69002152F
:101B0300E0FCA3E0FD4C605EE41203827B007AFEFE
:101B130079FF78461202677B007A5479217847125D
:101B2300015E1203BBAD07AC06E4120382E4FBFAC9
:101B330079F07841120267A804A905AA06AB077FCA
:101B4300007E1B7D377C491202671203BB90021390
:101B5300EEF0A3EFF0E4A3F0A3F09002117403F00E
:101B6300A374E8F0805E90001AE0FCA3E0FDEC12A1
:101B730003827B007AFE79FF78461202677B007A44
:101B8300547921784712015E1203BBAD07AC06E41A
:101B9300120382E4FBFA79F07841120267A804A9E0
:101BA30005AA06AB077F007E1B7D377C49120267BF
:101BB3001203BB900213EEF0A3EFF0900211E4F0D6
:101BC300A374C8F09002107401F090404CE0C3304D
:101BD300E401D3401E900213E0FEA3E0FF8E978F33
:101BE30096E59713FEE596138E95F59490404CE099
:101BF3004410F090020DE07002A3E07006900084A0
:101C0300E0702490020FE0701E90404CE030E40638
:101C1300E054EFF0D280E4900215F0A3F0900211AB
:101C23007403F0A37420F07F0022E4FDFC90021DF6
:101C3300E030E103021CBFE04402F0121987C2FF47
:101C43009040A1E04402F0E04401F0E490018CF004
:101C5300A3F0A3F0A3F0A3F0A3F0A3F09000F3E0AC
:101C63007010900195E0FFA3E09040B8CFF0A3EF90
:101C73008013900196E024CCFE900195E0340C9003
:101C830040B8F0A3CEF0A3E4F0A3F0904074740244
:101C9300F0A3747BF0A3E4F0A37402F09040CCE4CF
:101CA300F0A3F090405CC083C082E0FFA3E0443F18
:101CB300D082D083CFF0A3EFF0D2FF22900193E044
:101CC300FEA3E0FF4E70079002207406F022D3EFCC
:101CD30094C2EE9401500B9040CC740AF0A374AA02
:101CE300F022900192E06003021D7790018EE0FEE6
:101CF300A3E0FF90018DE02FFF90018CE03EFE906A
:101D03000191E02FFF900190E03EA2E713FCEF1357
:101D1300FDC3947AEC64809487501E9040B8E0FE33
:101D2300A3E0C394FFEE6480949F500DA3E4F0A35B
:101D3300F09040B875F0208029D3ED94E2EC6480F4
:101D4300948740219040B8E0FEA3E0D39400EE6472
:101D53008094804010A3E4F0A3F09040B874FF7522
:101D6300F0E01204B69040A1E054BF4440F090016B
:101D7300927401F02212304E9000D9EFF09000BA25
:101D8300F090009DE0FE04F074C52EF582E434006B
:101D9300F583EFF090009DE0C394064002E4F090D9
:101DA30000BAE0FFD3648094864003021EA4EF646C
:101DB3008094805003021EA4EF3395E0FE74CB2F72
:101DC300F58274003EF583E0FF9000BCF0A3E0FED3
:101DD300C3EF9EFFC364809485400674FA2FFF808F
:101DE3000CD3EF6480947B500474062FFF9000BCE7
:101DF300E0A3F0EFB401079000BFE0048009EFB463
:101E0300FF0B9000BFE014F0E4A3F080069000C045
:101E1300E004F09000C2E0FFFD9000BFE0FEFB3362
:101E230095E0FAD3EB9D7480F86A984004EFF08054
:101E3300169000C2E0F404FFC36480F8EE64809857
:101E430050059000BFEFF09000C2E0FFFD9000BF8F
:101E5300E0FEFB3395E0FAC3EB9D7480F86A98408B
:101E630019E49000C1F09000BCE004F0E0D364807A
:101E73009486401EE024FAF08018EFF404D36480C3
:101E8300F8EE6480989000C150057401F0800374EB
:101E9300FFF09000C0E0C3648094B24004A3747F59
:101EA300F09000C1E0FF221219879000F57401F051
:101EB300904090E4F0A3F09040947457F0A374FA28
:101EC300F0A37433F0A314F0904082E4F0A37402FF
:101ED300F0A314F0A374EBF0A37404F0A3747AF0EA
:101EE3009040A0E04440F0E054DFF0E04410F09074
:101EF30000D3E0FEA3E0FF9040D4EEF0A3EFF0C3E5
:101F030094FFEE941F401C904074740BF0A3742B49
:101F1300F0A3E4F0A37430F09040BA7432F0A374E9
:101F2300C88047C3EF94CCEE940C4024EF94FFEEAB
:101F3300941F501C9040747407F0A37472F0A3E4D0
:101F4300F0A37415F09040BA741FF0A37440801A84
:101F53009040747407F0A37472F0A3E4F0A37415B3
:101F6300F09040BA7407F0A374D0F09040927402DA
:101F7300F0A374DDF09002A8E4F0A374CCF0A37492
:101F830001F0A374EBF0900036E4F0A374C8F09072
:101F9300407E7404F0A374D3F090003F7401F0E426
:101FA300900004F0A3F090405CC083C082E0FFA3E4
:101FB300E0443FD082D083CFF0A3EFF0D2FF229052
:101FC3000220E0640360030220C89000A4E06003E1
:101FD3000220C89040CEE0FFA3E090009ECFF0A384
:101FE300EFF090009EE0FEA3E0FFC3941EEE64803A
:101FF3009407502B9000A8E060079000A3E0B4037F
:1020030017E49000A6F0A3F0A304F09000A3E0B4BB
:1020130003069000AAE004F09000A37401F022D319
:10202300EF94E4EE64809478406090009FE0941C09
:1020330090009EE06480948750509000A3E0FF647A
:10204300016005EF6403703B9000A7E004F07006A5
:102053009000A6E004F09000A5E004F09000A8E052
:10206300B40102E4F09000A3E0FFB40107E49000A0
:10207300A2F0800AEFB403069000A27401F0E4908A
:1020830000AAF09000A37402F022D390009FE09482
:10209300E290009EE0648094F8402A9000A8E060FB
:1020A300079000A3E0B40117E49000A6F0A3F0A307
:1020B30004F09000A3E0B401069000AAE004F090BD
:1020C30000A37403F0229000EFE0703004F0E4907A
:1020D30000DBF0A3F0A3F0A3F0A3F0A3F0A3F0A31D
:1020E300F0A3F0A3F0A3F0A3F0A3F0A3F09000EE0D
:1020F300F09000E9F0A3F09000EDF0229000E9E504
:10210300ABF0A3E5AAF0E4F5ABF5AA9000E9E0FE95
:10211300A3E0FF9000EEE025E024DDF582E4340047
:10212300F583EEF0A3EFF09000DFE0FEA3E0FF9075
:1021330000DEE02FFF9000DDE03EFE9000E2E02FA6
:10214300FF9000E1E03EFE9000E4E02FFF9000E30B
:10215300E03EFE9000E6E02FFF9000E5E03EFE90BB
:1021630000E8E02FFF9000E7E03EFEEF7803CEC3E8
:1021730013CE13D8F9FF9000DBEEF0A3EFF090003D
:10218300EEE004F09000EDE09000F0600F7401F0D9
:102193009000D512061A0008831C801C7401F0906D
:1021A30000D512061A00016B2F9000E9E0FFA3E0AF
:1021B3009000DBCFF0A3EFF09000EEE0B4060990BF
:1021C30000ED7401F0E4A3F022900220E0FF640725
:1021D3006008EF640660030222A39040DAE0FFA3E5
:1021E300E0900007CF8FF012059B9040DCE0FFA347
:1021F300E0900009CF8FF012059B9040DEE0FFA333
:10220300E090000BCF8FF012059B9040DAE0FEA325
:10221300E07826A60608F6A3E0FEA3E008A60608D3
:10222300F6A3E0FEA3E008A60608F69040DAE0FE77
:10223300A3E0C3947AEE64809494501EA3E0FEA3BB
:10224300E0C3947AEE64809494500FA3E0FEA3E07D
:10225300C3947AEE64809494403974011204821218
:10226300043CC39403403990020DE4F0A37402F0DC
:10227300E4900041F0900007F5F012059B900009EF
:10228300E4F5F012059B90000BE4F5F012059BE4D6
:102293000204A412043CD39400400574FF12048288
:1022A3002290021DE020E304E04408F01219879015
:1022B30040CE74E0F0A37401F0904094740FF0A347
:1022C30074FFF0A37401F0A37447F0904074740298
:1022D300F0A3747BF0A3E4F0A37402F09040AA147B
:1022E300F0A37468F09040A8E4F0A3F09040AC74BD
:1022F30041F0904082E4F0A37402F0A314F0A374BD
:10230300EBF0A37404F0A3747AF09040A0E0548F30
:102313004470F09000367402F0A374BCF090022075
:102323007407F0904090E4F0A3F09000F3E0900085
:102333000C60097405F0A374BBF080077406F0A366
:102343007424F090000CE0FFA3E0904092CFF0A340
:10235300EFF09040A1E054FDF0E054FEF022900134
:10236300ABE0600302241C904039E04440F090400D
:1023730039E020E6F99001A5E0F8A3E0F9A3E0FA3B
:10238300A3E0FB900308E0547FFEA3E054F8FFE4CE
:10239300FCFDEB2FFFEA3EFEED39FDEC38FC90012E
:1023A300A512060E9001A5E0FCA3E0FDA3E0FEA3A9
:1023B300E0FF78041205FA9001A3EEF0A3EFF0A377
:1023C300E0FCA3E0FDA3E0FEA3E0FFC006C007908E
:1023D30001A3E0FEA3E0FBAA06EA3395E0F9F8D0F7
:1023E30007D006C3EF9BFFEE9AFEED99FDEC98FC38
:1023F300A312060E9001AAE004F070069001A9E072
:1024030004F0D39001AAE094E89001A9E0648094D9
:102413008340069001AB7401F02275C12075CA0692
:1024230075CB0A90030EE0FEA3E08EC7F5C67814C1
:10243300E6FE08E68EC5F5C408E6FE08E68EC3F59B
:10244300C2E5C120E7FB7814A6C508A6C408A6C345
:1024530008A6C275C140C374FF7815967913F77443
:102463007F189619F7122710900084E064017052C8
:102473007812E6FC08E6FDD39458EC947F5038E4D8
:102483001203827BA57AA279E9783E12015E7B0072
:102493007A6079BC784412006D1203BB900078EE29
:1024A300F0A3EFF0C37812E69400501D9000787407
:1024B30005F0A374E3F022900078743FF0A374FF57
:1024C300F022E4900078F0A3F02278FEE4F6D8FD41
:1024D3009000007FFF7E03E4F0A3DFFCDEFA75814A
:1024E30055022522022D4FE493A3F8E493A340035E
:1024F300F68001F208DFF48029E493A3F85407245B
:102503000CC8C333C4540F4420C8834004F456801A
:102513000146F6DFE4800B0102040810204080909E
:1025230013C6E47E019360BCA3FF543F30E5095416
:102533001FFEE493A360010ECF54C025E060A840C2
:10254300B8E493A3FAE493A3F8E493A3C8C582C8B9
:10255300CAC583CAF0A3C8C582C8CAC583CADFE98E
:10256300DEE780BE122FDF7E007F177D007B007ABF
:1025730000791F1206787E007F3B7D007B017A0085
:1025830079D3120678E490021DF0900092F0FE7F5A
:102593004EFD7B017A0079041206787E007F087D68
:1025A300007B017A0079581206787E007F157D0042
:1025B3007B017A01799712067890019912061A0025
:1025C300003FFF90019F12061A00003FFF9001A5F4
:1025D30012061A00003FFF7E007F0D7D007B017A0B
:1025E3000079781206787E007F097D007B007A00EF
:1025F30079091206789000847401F02290021AEB94
:10260300F0A3EAF0A3E9F0900205E07002A3E06012
:102613005F900204E06401705790021AE0FBA3E0AC
:10262300FAA3E0F91204CCFDACF0EC1203827BCDEB
:102633007ACC794C783F12015EC004C005C006C055
:102643000790001AE0FCA3E0FDEC120382A804A9A2
:1026530005AA06AB07D007D006D005D004120304A1
:1026630060094007E4900204F080057E007F142295
:1026730090021AE0FBA3E0FAA3E0F990000412042D
:10268300F7FFAEF022900220E06407707F900036DF
:10269300E0FEA3E0FFBE0215BF8A129040747404EB
:1026A300F0A374F6F0A3E4F0A37409F022BE0215BC
:1026B300BF58129040747406F0A37434F0A3E4F08E
:1026C300A3740EF022BE0115BFF412904074740778
:1026D300F0A37472F0A3E4F0A37415F022BE011505
:1026E300BF2C129040747408F0A374B0F0A3E4F00C
:1026F300A3741DF022EF64644E7011904074740B48
:10270300F0A3742BF0A3E4F0A37430F022C3781485
:10271300E694004023E4781AF608F6781D06E618D6
:10272300700106C3781DE6941418E69400400FE484
:10273300F608F60876018006E4781CF608F6C378F6
:1027430014E694005030E4781CF608F6781B06E68D
:1027530018700106C3781BE6941418E69400401C15
:10276300E4F608F6900078F0A3F0A3F0A3F0C2FF1C
:10277300781E76028006E4781AF608F6781EE6FFDD
:10278300B401079000847401F022EFB40205E490D1
:102793000084F02290020DE07002A3E070779000B5
:1027A3005AE0FEA3E0FFD39485EE945E500F9002AF
:1027B30020E0FD701FEF949CEE94584017900207A1
:1027C3007405F0A3E0600314F02290020DE4F0A37B
:1027D3007408803290005AE0FEA3E0FFC3945AEEDF
:1027E3009429400BED7026EF9442EE942F501E90E7
:1027F30002087405F0900207E0600314F0229002CF
:102803000DE4F0A37404F0E4900041F02290020779
:102813007405F0A3F0229040BAE0FEA3E0D394271E
:10282300EE648094FC405D90001AE0FEA3E0FF900C
:102833000078E0FCA3E0FD9FFFEC9EFED3EF94A69F
:10284300EE64809484403D900000E0FEA3E09DFF91
:10285300EE9CFE12003ED3EF948CEE648094814094
:102863002390001BE0249EFE90001AE034009000A9
:102873007AF0A3CEF0900078E0FFA3E0900000CFC1
:10288300F0A3EFF02290405E7407F0A3747FF0A3EF
:10289300740DF0904058E4F0A3F090405CC083C006
:1028A30082FFA3E0543FD082D083CFF0A3EFF05355
:1028B300F880904061E054F7F0E054EFF0E0440218
:1028C300F0E054FEF090405AE4F0A374F0F0D2BF6D
:1028D300C2BE904061E054FBF0A3E054DFF0E0445B
:1028E30004F0E04480F0E054EFF0E04401F0D2FF64
:1028F3002290404CE054EFF0539EF7E59E541F4462
:10290300A0F59E539EFD539EEFE59E54FE4401F5B4
:102913009EE59F54E74408F59FE59E54F7FFE59E27
:1029230054F74FF59E539FF9A3E054FD4402F0750D
:1029330097017596D475950275941C9040D6E4F072
:10294300A3F0A2CE72CFB33355C8FFA2CE72CFE4A9
:10295300334FF5C8439F0122904051E04401F0E01A
:102963004408F0E04420F0E04480F0904050E0441C
:1029730020F0904052E04410F0904036C083C08273
:10298300E0FFA3E04480D082D083CFF0A3EFF090A8
:102993004036C083C082E04460FFA3E0441FD0827E
:1029A300D083CFF0A3EFF0904051E04410F090407B
:1029B30039E04404F0E054FDF0E04480F022C0E04C
:1029C300C0F0C083C082C0D075D000C000C001C0B9
:1029D30002C003C004C005C006C007904061E030D8
:1029E300E504E054DFF0904061E030E41B7B007AC3
:1029F30000791F1221CC9000AEE06003121FC29039
:102A03004061E0448054EFF0D007D006D005D004F5
:102A1300D003D002D001D000D0D0D082D083D0F068
:102A2300D0E032E5807F0030E1027F01EF64017086
:102A33003F900200E07002A3E070359001FFE06474
:102A430001702D00E5807F0030E1027F01BF01208E
:102A5300C2FF90001AE0FEA3E0FF1230A9E4900247
:102A630002F0900200F0A374C8F09001FF7402F02A
:102A7300E5807F0030E1027F01BF0106900203E0A1
:102A830004F022904051E04480F053D6BF53D6DF88
:102A9300E04440F043FE40904035E054BFF07FFEF9
:102AA300EF90404A20E006E0547FF08004E0448049
:102AB300F090404B74FFF09002237401F0A374FE76
:102AC300F0904035E04480F043D60853D9FB53D906
:102AD300EF43D90843D90243D90143D610229002C8
:102AE3001DE020E04EE04401F0904062E054DFF04E
:102AF300E0547FF0C2FF904036C083C082E0FFA362
:102B0300E04417D082D083CFF0A3EFF0E49001AB81
:102B1300F09001A9F0A3F09000F4F0A3F09000F27C
:102B2300F09000F6F0A3F0A3F09000FCF0A3F0A364
:102B3300F0A3F0229000F0E0604E75C12075CA0347
:102B43009000D5E0FCA3E0FDA3E0FEA3E0FF781036
:102B53001205E78EC78FC69000D5A3A3E0FEA3E0BE
:102B6300FF8EC58FC49000DBE0FEA3E0FF8EC38F12
:102B7300C2E5C120E7FB9000D3E5C5F0A3E5C4F0AF
:102B830075C140E49000F0F022C0E0C0F0C083C003
:102B930082C0D075D000C000C001C002C003C00411
:102BA300C005C006C007E59D30E703539D7FE59D43
:102BB30030E603539DBFE59D30E506122A26539D5B
:102BC300DFD007D006D005D004D003D002D001D087
:102BD30000D0D0D082D083D0F0D0E032C0E0C0F0BB
:102BE300C083C082C0D075D000C000C001C002C085
:102BF30003C004C005C006C007E5D720E40AE5D733
:102C030020E505E5D730E606122DD053D78FD00740
:102C1300D006D005D004D003D002D001D000D0D04C
:102C2300D082D083D0F0D0E032C0E0C0F0C083C007
:102C330082C0D075D000C000C001C002C003C00470
:102C4300C005C006C007E59F30E703539F7FE59F9C
:102C530030E506122EFB539FDFD007D006D005D0F8
:102C630004D003D002D001D000D0D0D082D083D002
:102C7300F0D0E0329002A8740CF0A374CCF0A374EB
:102C830001F0A374EBF09002B4E4F0A3F0A3F0A37B
:102C9300F09002B2F0A3F09002B0F0A3F09002BA69
:102CA300F0A3F09002AC7414F0A3747AF0A3E4F0F0
:102CB300A37434F043F908E5F920E4FB2290405073
:102CC300E04450F0A3E04402F0904054E054EFF0AD
:102CD300E5DA549F4420F5DA53DAE7E5D654F844AD
:102CE30007F5D653DAF9E5D554CF4430F5D5E5D514
:102CF30054F3440CF5D5E5D554FC4403F5D553E121
:102D0300FD43DA0122E4FFFE904052E054DFF090ED
:102D1300404FE0547FF0E04440F0E04411F01200F3
:102D23000612295B122888122F4FE4FEFF0FBF0003
:102D3300010EBE3AF8BF98F512309B122A8612286C
:102D4300F412301A904061E04440F022120026123F
:102D53002D08D2AF12236112155990005AE0FCA33B
:102D6300E0FDE41203827B007AFE79FF78461202CB
:102D7300677BAB7A6A7907784512015E1203BB90D1
:102D83000221EEF0A3EFF012241D121ADB80C5C25C
:102D9300FFE49000D3F0A3F0A312061A0000000092
:102DA300E49000D9F0A374FFF09000EBE4F0A37477
:102DB30096F0E49000EFF0A3F0A3F09000F4F0900D
:102DC30000F3F09000F8F0122EA1022CC0121D782F
:102DD3009000DAEFF01220C9122B379000F1E06077
:102DE30028900092E0FF70089000D9E06404600B23
:102DF300EFB401159000D9E0B4040E121EAA53D506
:102E0300C053DAFEE49000F1F022E490020DF0A347
:102E1300F0122F26122FDF7E007F4E7D007B017A7A
:102E23000079041206787E007F0D7D007B007A0016
:102E3300791212067890021D7401F022900036E098
:102E43007002A3E070269000F4E0701190021DE080
:102E530020E207E04404F0122D9202106190022058
:102E63007405F09001937407F0A304F0229002001C
:102E7300E07002A3E0600E900201E024FFF09002F4
:102E830000E034FFF0900205E07002A3E0600E90D2
:102E93000206E024FFF0900205E034FFF02253A97C
:102EA300FEE5A1541F44E0F5A1E5A154FC4401F55E
:102EB300A153A1FB53A91F75AFEA75AE6085AFADF2
:102EC30085AEACE4F5ABF5AA43A90122D390021277
:102ED300E09400900211E064809480401A90000412
:102EE300E07004A3E06401700E900212E024FFF08E
:102EF300900211E034FFF022900210E0B40123901D
:102F0300020FE0701D900213E0FEA3E0FF8E978F87
:102F130096E597C313FEE596138E95F594E4900218
:102F230010F0227E007F167D007B017A0079A012CB
:102F330006787E007F0C7D007B017A0079B912064A
:102F4300789000C174FFF0A3740AF022904052E01D
:102F53004402F0E04401F0904051E04480F090409E
:102F630034E054FBF0E04402F0E04401F090404EC2
:102F7300E04401F022904036C083C082E0FFA3E02A
:102F830054EED082D083CFF0A3EFF0122E0D122C8B
:102F930077904062E04480F022C0E0C083C082E5C5
:102FA300D730E71090020DE4F0A304F0900041E461
:102FB300F053D77FD082D083D0E032904062E05488
:102FC3007FF0E054DFF0C2FFE4900004F0A3F09040
:102FD3000097F0A3F0900002F0A3F0227E007F1E82
:102FE3007D007B007A0079381206787E007F027DAF
:102FF300007B007A007936020678C0E0E5A930E765
:103003000353A97FE5A930E60353A9BFE5A930E53A
:103013000353A9DFD0E032A2CC72CDB3E43355C859
:10302300FFA2CCE4334FF5C8904061E054BF444065
:10303300F0229002B2EEF0A3EFF043F908E5F92095
:10304300E4FB9002B4E0FEA3E0FF22E4FFE5D73007
:10305300E204EF2404FFE5D730E1020F0FE5D73098
:10306300E0010F229002007407F0A374D0F0E49003
:1030730001FFF0900202F0229001FFE0B402067417
:1030830003F07F01227F0022E490020FF0A3F0A35C
:103093007403F0A37420F02253D77F53D57F43D515
:1030A30040D2D9D2D822900215EEF0A3EFF022300D
:0B30B3008D02C28D32900204E0FF226B
:00000001FF
